{
  "contractName": "Counter",
  "abi": [
    {
      "inputs": [
        {
          "internalType": "address",
          "name": "address_",
          "type": "address"
        }
      ],
      "stateMutability": "nonpayable",
      "type": "constructor"
    },
    {
      "inputs": [],
      "name": "getCount",
      "outputs": [
        {
          "internalType": "uint256",
          "name": "",
          "type": "uint256"
        }
      ],
      "stateMutability": "view",
      "type": "function"
    },
    {
      "inputs": [],
      "name": "incrementCount",
      "outputs": [],
      "stateMutability": "nonpayable",
      "type": "function"
    }
  ],
  "bytecode": "0x608060405234801561001057600080fd5b506040516102c03803806102c08339818101604052810190610032919061011c565b806000806101000a81548173ffffffffffffffffffffffffffffffffffffffff021916908373ffffffffffffffffffffffffffffffffffffffff16021790555033600160006101000a81548173ffffffffffffffffffffffffffffffffffffffff021916908373ffffffffffffffffffffffffffffffffffffffff16021790555050610149565b600080fd5b600073ffffffffffffffffffffffffffffffffffffffff82169050919050565b60006100e9826100be565b9050919050565b6100f9816100de565b811461010457600080fd5b50565b600081519050610116816100f0565b92915050565b600060208284031215610132576101316100b9565b5b600061014084828501610107565b91505092915050565b610168806101586000396000f3fe608060405234801561001057600080fd5b50600436106100365760003560e01c8063a87d942c1461003b578063e5071b8e14610059575b600080fd5b610043610063565b60405161005091906100a0565b60405180910390f35b61006161006d565b005b6000600254905090565b60026000815480929190610080906100ea565b9190505550565b6000819050919050565b61009a81610087565b82525050565b60006020820190506100b56000830184610091565b92915050565b7f4e487b7100000000000000000000000000000000000000000000000000000000600052601160045260246000fd5b60006100f582610087565b91507fffffffffffffffffffffffffffffffffffffffffffffffffffffffffffffffff8203610127576101266100bb565b5b60018201905091905056fea2646970667358221220904d4a700f4f250d77f7d648a583dcc90f012262a0c1fd40de2b1d122171926964736f6c634300080d0033",
  "immutableReferences": {},
  "source": "// SPDX-License-Identifier: MIT\npragma solidity >=0.4.22 <0.9.0;\n\ncontract Counter {\n\n    address owner;\n    address factory;\n    uint count;\n\n    modifier factoryOnly() {\n        require(msg.sender == owner);\n        _;\n    }\n\n    constructor(address address_)\n    {\n        owner = address_;\n        factory = msg.sender;\n    }\n\n    function getCount()\n        public\n        view\n        returns(uint)\n    {\n        return count;\n    }\n\n    function incrementCount()\n        public\n    {\n        count++;\n    }\n\n}\n\n    // methods if Counter.sol is imported and instantiated as\n    // new Contract(address) into a mapping (address => Counter)\n    \n    // function createCounter()\n    //     public\n    // {\n    //     counters[msg.sender] = new Counter(msg.sender);\n    // }\n\n    // modifier counterMustExist() {\n    //     require(counters[msg.sender] != Counter(0x0000000000000000000000000000000000000000));\n    //     _;\n    // }\n\n    // function getCounter()\n    //     public\n    //     view\n    //     counterMustExist\n    //     returns(Counter)\n    // {\n    //     return counters[msg.sender];\n    // }\n\n    // function incrementCounter()\n    //     public\n    //     counterMustExist\n    // {\n    //     counters[msg.sender].incrementCount();\n    // }\n\n    // function getCountFromCounter()\n    //     public\n    //     view\n    //     counterMustExist\n    //     returns(uint)\n    // {\n    //     return counters[msg.sender].getCount();\n    // }",
  "sourcePath": "/home/eric/crypto-projects/truffle-mycontract/contracts/Counter.sol",
  "compiler": {
    "name": "solc",
    "version": "0.8.13+commit.abaa5c0e.Emscripten.clang"
  },
  "schemaVersion": "3.4.7",
  "updatedAt": "2022-04-26T05:19:47.208Z",
  "devdoc": {
    "kind": "dev",
    "methods": {},
    "version": 1
  },
  "userdoc": {
    "kind": "user",
    "methods": {},
    "version": 1
  }
}