{
  "contractName": "GameToken",
  "abi": [
    {
      "inputs": [
        {
          "internalType": "string",
          "name": "name_",
          "type": "string"
        },
        {
          "internalType": "string",
          "name": "symbol_",
          "type": "string"
        }
      ],
      "stateMutability": "nonpayable",
      "type": "constructor"
    },
    {
      "anonymous": false,
      "inputs": [
        {
          "indexed": true,
          "internalType": "address",
          "name": "owner",
          "type": "address"
        },
        {
          "indexed": true,
          "internalType": "address",
          "name": "spender",
          "type": "address"
        },
        {
          "indexed": false,
          "internalType": "uint256",
          "name": "value",
          "type": "uint256"
        }
      ],
      "name": "Approval",
      "type": "event"
    },
    {
      "anonymous": false,
      "inputs": [
        {
          "indexed": true,
          "internalType": "address",
          "name": "from",
          "type": "address"
        },
        {
          "indexed": true,
          "internalType": "address",
          "name": "to",
          "type": "address"
        },
        {
          "indexed": false,
          "internalType": "uint256",
          "name": "value",
          "type": "uint256"
        }
      ],
      "name": "Transfer",
      "type": "event"
    },
    {
      "inputs": [],
      "name": "decimals",
      "outputs": [
        {
          "internalType": "uint8",
          "name": "",
          "type": "uint8"
        }
      ],
      "stateMutability": "view",
      "type": "function"
    },
    {
      "inputs": [],
      "name": "name",
      "outputs": [
        {
          "internalType": "string",
          "name": "",
          "type": "string"
        }
      ],
      "stateMutability": "view",
      "type": "function"
    },
    {
      "inputs": [],
      "name": "symbol",
      "outputs": [
        {
          "internalType": "string",
          "name": "",
          "type": "string"
        }
      ],
      "stateMutability": "view",
      "type": "function"
    },
    {
      "inputs": [],
      "name": "totalSupply",
      "outputs": [
        {
          "internalType": "uint256",
          "name": "",
          "type": "uint256"
        }
      ],
      "stateMutability": "view",
      "type": "function"
    },
    {
      "inputs": [
        {
          "internalType": "address",
          "name": "owner",
          "type": "address"
        }
      ],
      "name": "balanceOf",
      "outputs": [
        {
          "internalType": "uint256",
          "name": "",
          "type": "uint256"
        }
      ],
      "stateMutability": "view",
      "type": "function"
    },
    {
      "inputs": [
        {
          "internalType": "address",
          "name": "receiver",
          "type": "address"
        },
        {
          "internalType": "uint256",
          "name": "numTokens",
          "type": "uint256"
        }
      ],
      "name": "transfer",
      "outputs": [
        {
          "internalType": "bool",
          "name": "",
          "type": "bool"
        }
      ],
      "stateMutability": "nonpayable",
      "type": "function"
    },
    {
      "inputs": [
        {
          "internalType": "address",
          "name": "delegate",
          "type": "address"
        },
        {
          "internalType": "uint256",
          "name": "numTokens",
          "type": "uint256"
        }
      ],
      "name": "approve",
      "outputs": [
        {
          "internalType": "bool",
          "name": "",
          "type": "bool"
        }
      ],
      "stateMutability": "nonpayable",
      "type": "function"
    },
    {
      "inputs": [
        {
          "internalType": "address",
          "name": "userAcct",
          "type": "address"
        },
        {
          "internalType": "uint256",
          "name": "numTokens",
          "type": "uint256"
        }
      ],
      "name": "approveGameContract",
      "outputs": [
        {
          "internalType": "bool",
          "name": "",
          "type": "bool"
        }
      ],
      "stateMutability": "nonpayable",
      "type": "function"
    },
    {
      "inputs": [
        {
          "internalType": "address",
          "name": "owner",
          "type": "address"
        },
        {
          "internalType": "address",
          "name": "delegate",
          "type": "address"
        }
      ],
      "name": "allowance",
      "outputs": [
        {
          "internalType": "uint256",
          "name": "",
          "type": "uint256"
        }
      ],
      "stateMutability": "view",
      "type": "function"
    },
    {
      "inputs": [
        {
          "internalType": "address",
          "name": "userAcct",
          "type": "address"
        },
        {
          "internalType": "uint256",
          "name": "numTokens",
          "type": "uint256"
        }
      ],
      "name": "transferFromContractInitiated",
      "outputs": [
        {
          "internalType": "bool",
          "name": "",
          "type": "bool"
        }
      ],
      "stateMutability": "nonpayable",
      "type": "function"
    },
    {
      "inputs": [
        {
          "internalType": "address",
          "name": "owner",
          "type": "address"
        },
        {
          "internalType": "address",
          "name": "buyer",
          "type": "address"
        },
        {
          "internalType": "uint256",
          "name": "numTokens",
          "type": "uint256"
        }
      ],
      "name": "transferFrom",
      "outputs": [
        {
          "internalType": "bool",
          "name": "",
          "type": "bool"
        }
      ],
      "stateMutability": "nonpayable",
      "type": "function"
    }
  ],
  "bytecode": "0x60806040526a52b7d2dcc80cd2e40000006005553480156200002057600080fd5b506040516200190138038062001901833981810160405281019062000046919062000374565b81600190805190602001906200005e92919062000127565b5080600290805190602001906200007792919062000127565b50336000806101000a81548173ffffffffffffffffffffffffffffffffffffffff021916908373ffffffffffffffffffffffffffffffffffffffff160217905550600554600360008060009054906101000a900473ffffffffffffffffffffffffffffffffffffffff1673ffffffffffffffffffffffffffffffffffffffff1673ffffffffffffffffffffffffffffffffffffffff1681526020019081526020016000208190555050506200045d565b828054620001359062000428565b90600052602060002090601f016020900481019282620001595760008555620001a5565b82601f106200017457805160ff1916838001178555620001a5565b82800160010185558215620001a5579182015b82811115620001a457825182559160200191906001019062000187565b5b509050620001b49190620001b8565b5090565b5b80821115620001d3576000816000905550600101620001b9565b5090565b6000604051905090565b600080fd5b600080fd5b600080fd5b600080fd5b6000601f19601f8301169050919050565b7f4e487b7100000000000000000000000000000000000000000000000000000000600052604160045260246000fd5b6200024082620001f5565b810181811067ffffffffffffffff8211171562000262576200026162000206565b5b80604052505050565b600062000277620001d7565b905062000285828262000235565b919050565b600067ffffffffffffffff821115620002a857620002a762000206565b5b620002b382620001f5565b9050602081019050919050565b60005b83811015620002e0578082015181840152602081019050620002c3565b83811115620002f0576000848401525b50505050565b60006200030d62000307846200028a565b6200026b565b9050828152602081018484840111156200032c576200032b620001f0565b5b62000339848285620002c0565b509392505050565b600082601f830112620003595762000358620001eb565b5b81516200036b848260208601620002f6565b91505092915050565b600080604083850312156200038e576200038d620001e1565b5b600083015167ffffffffffffffff811115620003af57620003ae620001e6565b5b620003bd8582860162000341565b925050602083015167ffffffffffffffff811115620003e157620003e0620001e6565b5b620003ef8582860162000341565b9150509250929050565b7f4e487b7100000000000000000000000000000000000000000000000000000000600052602260045260246000fd5b600060028204905060018216806200044157607f821691505b602082108103620004575762000456620003f9565b5b50919050565b611494806200046d6000396000f3fe608060405234801561001057600080fd5b50600436106100a95760003560e01c80636bd1da3a116100715780636bd1da3a1461016857806370a08231146101985780638913cd9e146101c857806395d89b41146101f8578063a9059cbb14610216578063dd62ed3e14610246576100a9565b806306fdde03146100ae578063095ea7b3146100cc57806318160ddd146100fc57806323b872dd1461011a578063313ce5671461014a575b600080fd5b6100b6610276565b6040516100c39190610ec2565b60405180910390f35b6100e660048036038101906100e19190610f7d565b610304565b6040516100f39190610fd8565b60405180910390f35b6101046103f6565b6040516101119190611002565b60405180910390f35b610134600480360381019061012f919061101d565b610400565b6040516101419190610fd8565b60405180910390f35b6101526107d1565b60405161015f919061108c565b60405180910390f35b610182600480360381019061017d9190610f7d565b6107d6565b60405161018f9190610fd8565b60405180910390f35b6101b260048036038101906101ad91906110a7565b610909565b6040516101bf9190611002565b60405180910390f35b6101e260048036038101906101dd9190610f7d565b610952565b6040516101ef9190610fd8565b60405180910390f35b610200610aec565b60405161020d9190610ec2565b60405180910390f35b610230600480360381019061022b9190610f7d565b610b7a565b60405161023d9190610fd8565b60405180910390f35b610260600480360381019061025b91906110d4565b610d4f565b60405161026d9190611002565b60405180910390f35b6001805461028390611143565b80601f01602080910402602001604051908101604052809291908181526020018280546102af90611143565b80156102fc5780601f106102d1576101008083540402835291602001916102fc565b820191906000526020600020905b8154815290600101906020018083116102df57829003601f168201915b505050505081565b600081600460003373ffffffffffffffffffffffffffffffffffffffff1673ffffffffffffffffffffffffffffffffffffffff16815260200190815260200160002060008573ffffffffffffffffffffffffffffffffffffffff1673ffffffffffffffffffffffffffffffffffffffff168152602001908152602001600020819055508273ffffffffffffffffffffffffffffffffffffffff163373ffffffffffffffffffffffffffffffffffffffff167f8c5be1e5ebec7d5bd14f71427d1e84f3dd0314c0f7b2291e5b200ac8c7c3b925846040516103e49190611002565b60405180910390a36001905092915050565b6000600554905090565b6000600360008573ffffffffffffffffffffffffffffffffffffffff1673ffffffffffffffffffffffffffffffffffffffff16815260200190815260200160002054821115610484576040517f08c379a000000000000000000000000000000000000000000000000000000000815260040161047b906111e6565b60405180910390fd5b600460008573ffffffffffffffffffffffffffffffffffffffff1673ffffffffffffffffffffffffffffffffffffffff16815260200190815260200160002060003373ffffffffffffffffffffffffffffffffffffffff1673ffffffffffffffffffffffffffffffffffffffff16815260200190815260200160002054821115610543576040517f08c379a000000000000000000000000000000000000000000000000000000000815260040161053a9061129e565b60405180910390fd5b61058c600360008673ffffffffffffffffffffffffffffffffffffffff1673ffffffffffffffffffffffffffffffffffffffff1681526020019081526020016000205483610dd6565b600360008673ffffffffffffffffffffffffffffffffffffffff1673ffffffffffffffffffffffffffffffffffffffff16815260200190815260200160002081905550610655600460008673ffffffffffffffffffffffffffffffffffffffff1673ffffffffffffffffffffffffffffffffffffffff16815260200190815260200160002060003373ffffffffffffffffffffffffffffffffffffffff1673ffffffffffffffffffffffffffffffffffffffff1681526020019081526020016000205483610dd6565b600460008673ffffffffffffffffffffffffffffffffffffffff1673ffffffffffffffffffffffffffffffffffffffff16815260200190815260200160002060003373ffffffffffffffffffffffffffffffffffffffff1673ffffffffffffffffffffffffffffffffffffffff1681526020019081526020016000208190555061071e600360008573ffffffffffffffffffffffffffffffffffffffff1673ffffffffffffffffffffffffffffffffffffffff1681526020019081526020016000205483610dfd565b600360008573ffffffffffffffffffffffffffffffffffffffff1673ffffffffffffffffffffffffffffffffffffffff168152602001908152602001600020819055508273ffffffffffffffffffffffffffffffffffffffff168473ffffffffffffffffffffffffffffffffffffffff167fddf252ad1be2c89b69c2b068fc378daa952ba7f163c4a11628f55a4df523b3ef846040516107be9190611002565b60405180910390a3600190509392505050565b601281565b600081600460008573ffffffffffffffffffffffffffffffffffffffff1673ffffffffffffffffffffffffffffffffffffffff16815260200190815260200160002060008060009054906101000a900473ffffffffffffffffffffffffffffffffffffffff1673ffffffffffffffffffffffffffffffffffffffff1673ffffffffffffffffffffffffffffffffffffffff1681526020019081526020016000208190555060008054906101000a900473ffffffffffffffffffffffffffffffffffffffff1673ffffffffffffffffffffffffffffffffffffffff168373ffffffffffffffffffffffffffffffffffffffff167f8c5be1e5ebec7d5bd14f71427d1e84f3dd0314c0f7b2291e5b200ac8c7c3b925846040516108f79190611002565b60405180910390a36001905092915050565b6000600360008373ffffffffffffffffffffffffffffffffffffffff1673ffffffffffffffffffffffffffffffffffffffff168152602001908152602001600020549050919050565b6000600360008473ffffffffffffffffffffffffffffffffffffffff1673ffffffffffffffffffffffffffffffffffffffff168152602001908152602001600020548211156109d6576040517f08c379a00000000000000000000000000000000000000000000000000000000081526004016109cd906111e6565b60405180910390fd5b600460008473ffffffffffffffffffffffffffffffffffffffff1673ffffffffffffffffffffffffffffffffffffffff16815260200190815260200160002060008060009054906101000a900473ffffffffffffffffffffffffffffffffffffffff1673ffffffffffffffffffffffffffffffffffffffff1673ffffffffffffffffffffffffffffffffffffffff16815260200190815260200160002054821115610ab6576040517f08c379a0000000000000000000000000000000000000000000000000000000008152600401610aad90611356565b60405180910390fd5b610ae18360008054906101000a900473ffffffffffffffffffffffffffffffffffffffff1684610400565b506001905092915050565b60028054610af990611143565b80601f0160208091040260200160405190810160405280929190818152602001828054610b2590611143565b8015610b725780601f10610b4757610100808354040283529160200191610b72565b820191906000526020600020905b815481529060010190602001808311610b5557829003601f168201915b505050505081565b6000600360003373ffffffffffffffffffffffffffffffffffffffff1673ffffffffffffffffffffffffffffffffffffffff16815260200190815260200160002054821115610bc857600080fd5b610c11600360003373ffffffffffffffffffffffffffffffffffffffff1673ffffffffffffffffffffffffffffffffffffffff1681526020019081526020016000205483610dd6565b600360003373ffffffffffffffffffffffffffffffffffffffff1673ffffffffffffffffffffffffffffffffffffffff16815260200190815260200160002081905550610c9d600360008573ffffffffffffffffffffffffffffffffffffffff1673ffffffffffffffffffffffffffffffffffffffff1681526020019081526020016000205483610dfd565b600360008573ffffffffffffffffffffffffffffffffffffffff1673ffffffffffffffffffffffffffffffffffffffff168152602001908152602001600020819055508273ffffffffffffffffffffffffffffffffffffffff163373ffffffffffffffffffffffffffffffffffffffff167fddf252ad1be2c89b69c2b068fc378daa952ba7f163c4a11628f55a4df523b3ef84604051610d3d9190611002565b60405180910390a36001905092915050565b6000600460008473ffffffffffffffffffffffffffffffffffffffff1673ffffffffffffffffffffffffffffffffffffffff16815260200190815260200160002060008373ffffffffffffffffffffffffffffffffffffffff1673ffffffffffffffffffffffffffffffffffffffff16815260200190815260200160002054905092915050565b600082821115610de957610de8611376565b5b8183610df591906113d4565b905092915050565b6000808284610e0c9190611408565b905083811015610e1f57610e1e611376565b5b8091505092915050565b600081519050919050565b600082825260208201905092915050565b60005b83811015610e63578082015181840152602081019050610e48565b83811115610e72576000848401525b50505050565b6000601f19601f8301169050919050565b6000610e9482610e29565b610e9e8185610e34565b9350610eae818560208601610e45565b610eb781610e78565b840191505092915050565b60006020820190508181036000830152610edc8184610e89565b905092915050565b600080fd5b600073ffffffffffffffffffffffffffffffffffffffff82169050919050565b6000610f1482610ee9565b9050919050565b610f2481610f09565b8114610f2f57600080fd5b50565b600081359050610f4181610f1b565b92915050565b6000819050919050565b610f5a81610f47565b8114610f6557600080fd5b50565b600081359050610f7781610f51565b92915050565b60008060408385031215610f9457610f93610ee4565b5b6000610fa285828601610f32565b9250506020610fb385828601610f68565b9150509250929050565b60008115159050919050565b610fd281610fbd565b82525050565b6000602082019050610fed6000830184610fc9565b92915050565b610ffc81610f47565b82525050565b60006020820190506110176000830184610ff3565b92915050565b60008060006060848603121561103657611035610ee4565b5b600061104486828701610f32565b935050602061105586828701610f32565b925050604061106686828701610f68565b9150509250925092565b600060ff82169050919050565b61108681611070565b82525050565b60006020820190506110a1600083018461107d565b92915050565b6000602082840312156110bd576110bc610ee4565b5b60006110cb84828501610f32565b91505092915050565b600080604083850312156110eb576110ea610ee4565b5b60006110f985828601610f32565b925050602061110a85828601610f32565b9150509250929050565b7f4e487b7100000000000000000000000000000000000000000000000000000000600052602260045260246000fd5b6000600282049050600182168061115b57607f821691505b60208210810361116e5761116d611114565b5b50919050565b7f6e756d546f6b656e73206973206e6f74206c657373207468616e206f7220657160008201527f2e20746f20746865206f776e657227732062616c616e63650000000000000000602082015250565b60006111d0603883610e34565b91506111db82611174565b604082019050919050565b600060208201905081810360008301526111ff816111c3565b9050919050565b7f6e756d546f6b656e73206973206e6f74206c657373207468616e206f7220657160008201527f2e20746f2074686520616c6c6f77616e636520656e61626c6564206f6e20746860208201527f652064656c656761746500000000000000000000000000000000000000000000604082015250565b6000611288604a83610e34565b915061129382611206565b606082019050919050565b600060208201905081810360008301526112b78161127b565b9050919050565b7f6e756d546f6b656e73206973206e6f74206c657373207468616e206f7220657160008201527f2e20746f2074686520616c6c6f77616e636520656e61626c656420766961207460208201527f68652067616d6520636f6e747261637400000000000000000000000000000000604082015250565b6000611340605083610e34565b915061134b826112be565b606082019050919050565b6000602082019050818103600083015261136f81611333565b9050919050565b7f4e487b7100000000000000000000000000000000000000000000000000000000600052600160045260246000fd5b7f4e487b7100000000000000000000000000000000000000000000000000000000600052601160045260246000fd5b60006113df82610f47565b91506113ea83610f47565b9250828210156113fd576113fc6113a5565b5b828203905092915050565b600061141382610f47565b915061141e83610f47565b9250827fffffffffffffffffffffffffffffffffffffffffffffffffffffffffffffffff03821115611453576114526113a5565b5b82820190509291505056fea2646970667358221220759a039116444fde4a84e21b05365e8e98f612706f3f4a56dcd3fd931e183b9964736f6c634300080d0033",
  "immutableReferences": {},
  "source": "// SPDX-License-Identifier: MIT\npragma solidity ^0.8.0;\n\ninterface IERC20 {\n    function totalSupply() external view returns (uint256);\n\n    function balanceOf(address owner) external view returns (uint256);\n\n    function allowance(address owner, address spender)\n        external\n        view\n        returns (uint256);\n\n    function transfer(address recipient, uint256 amount)\n        external\n        returns (bool);\n\n    function approve(address spender, uint256 amount) external returns (bool);\n\n    function transferFrom(\n        address sender,\n        address recipient,\n        uint256 amount\n    ) external returns (bool);\n\n    event Transfer(address indexed from, address indexed to, uint256 value);\n    event Approval(\n        address indexed owner,\n        address indexed spender,\n        uint256 value\n    );\n}\n\nlibrary SafeMath { // Only relevant functions\n    function sub(uint256 a, uint256 b) internal pure returns (uint256) {\n        assert(b <= a);\n        return a - b;\n    }\n    function add(uint256 a, uint256 b) internal pure returns (uint256)   {\n        uint256 c = a + b;\n        assert(c >= a);\n        return c;\n    }\n}\n\ncontract GameToken is IERC20 {\n\n    using SafeMath for uint256;\n\n    address private contractOwner;\n    string public name;\n    string public symbol;\n    uint8 public constant decimals = 18;\n\n    mapping(address => uint256) balances;\n    mapping(address => mapping(address => uint256)) allowed;\n    \n    uint256 totalSupply_ = 100 * 1000000 ether; // 100 million tokens\n\n    constructor(string memory name_, string memory symbol_) {\n        name = name_;\n        symbol = symbol_;\n        contractOwner = msg.sender;\n        balances[contractOwner] = totalSupply_;\n    }\n\n    function totalSupply()\n        external\n        view\n        override\n        returns (uint256)\n    {\n        return totalSupply_;\n    }\n\n    function balanceOf(address owner)\n        external\n        view\n        override\n        returns (uint256)\n    {\n        return balances[owner];\n    }\n\n    function transfer(address receiver, uint256 numTokens)\n        public\n        override\n        returns (bool)\n    {\n        require(numTokens <= balances[msg.sender]);\n        balances[msg.sender] = SafeMath.sub(balances[msg.sender], numTokens);\n        balances[receiver] = SafeMath.add(balances[receiver], numTokens);\n        emit Transfer(msg.sender, receiver, numTokens);\n        return true;\n    }\n\n    function approve(address delegate, uint256 numTokens)\n        public\n        override\n        returns (bool)\n    {\n        allowed[msg.sender][delegate] = numTokens;\n        emit Approval(msg.sender, delegate, numTokens);\n        return true;\n    }\n\n    function approveGameContract(address userAcct, uint256 numTokens)\n        public\n        returns (bool)\n    {\n        allowed[userAcct][contractOwner] = numTokens;\n        emit Approval(userAcct, contractOwner, numTokens);\n        return true;\n    }\n\n    function allowance(address owner, address delegate)\n        public\n        view\n        override\n        returns (uint256)\n    {\n        return allowed[owner][delegate];\n    }\n\n    function transferFromContractInitiated( // user sends coins back to contract when something is purchased in-game\n        address userAcct,\n        uint256 numTokens\n    )\n        public\n    returns (bool) {\n        require(numTokens <= balances[userAcct], \"numTokens is not less than or eq. to the owner's balance\");\n        require(numTokens <= allowed[userAcct][contractOwner], \"numTokens is not less than or eq. to the allowance enabled via the game contract\");\n\n        transferFrom(userAcct, contractOwner, numTokens);\n        return true;\n    }\n    \n    function transferFrom(\n        address owner,\n        address buyer,\n        uint256 numTokens\n    )\n        public\n        override\n        returns (bool)\n    {\n        require(numTokens <= balances[owner], \"numTokens is not less than or eq. to the owner's balance\"); // num of tokens to transfer must be LESS than or equal to the owner's balance\n        require(numTokens <= allowed[owner][msg.sender], \"numTokens is not less than or eq. to the allowance enabled on the delegate\"); // num of tokens to transfer must be LESS than or equal to amount delegated to the msg.sender address (the caller of the contract)\n\n        balances[owner] = SafeMath.sub(balances[owner], numTokens);\n        allowed[owner][msg.sender] = SafeMath.sub(allowed[owner][msg.sender], numTokens); // subtract from total delegated amount allowed \n        balances[buyer] = SafeMath.add(balances[buyer], numTokens);\n        emit Transfer(owner, buyer, numTokens);\n        return true;\n    }\n}\n",
  "sourcePath": "/home/eric/crypto-projects/truffle-mycontract/contracts/GameToken.sol",
  "compiler": {
    "name": "solc",
    "version": "0.8.13+commit.abaa5c0e.Emscripten.clang"
  },
  "schemaVersion": "3.4.7",
  "updatedAt": "2022-05-01T20:00:08.781Z",
  "devdoc": {
    "kind": "dev",
    "methods": {},
    "version": 1
  },
  "userdoc": {
    "kind": "user",
    "methods": {},
    "version": 1
  }
}