{
  "contractName": "Game",
  "abi": [
    {
      "inputs": [],
      "stateMutability": "nonpayable",
      "type": "constructor"
    },
    {
      "anonymous": false,
      "inputs": [
        {
          "indexed": true,
          "internalType": "address",
          "name": "user",
          "type": "address"
        },
        {
          "indexed": false,
          "internalType": "uint256",
          "name": "amount",
          "type": "uint256"
        }
      ],
      "name": "UserPurchasedCoins",
      "type": "event"
    },
    {
      "anonymous": false,
      "inputs": [
        {
          "indexed": true,
          "internalType": "address",
          "name": "user",
          "type": "address"
        },
        {
          "indexed": false,
          "internalType": "uint256",
          "name": "amount",
          "type": "uint256"
        }
      ],
      "name": "UserSpentCoins",
      "type": "event"
    },
    {
      "inputs": [],
      "name": "getUserBal",
      "outputs": [
        {
          "internalType": "uint256",
          "name": "",
          "type": "uint256"
        }
      ],
      "stateMutability": "view",
      "type": "function",
      "constant": true
    },
    {
      "inputs": [
        {
          "internalType": "uint256",
          "name": "coins",
          "type": "uint256"
        }
      ],
      "name": "spendCoins",
      "outputs": [],
      "stateMutability": "nonpayable",
      "type": "function"
    },
    {
      "inputs": [],
      "name": "buyCoins",
      "outputs": [],
      "stateMutability": "payable",
      "type": "function",
      "payable": true
    }
  ],
  "bytecode": "0x608060405234801561001057600080fd5b5033600160006101000a81548173ffffffffffffffffffffffffffffffffffffffff021916908373ffffffffffffffffffffffffffffffffffffffff16021790555060405161005e906100c8565b6100679061017e565b604051809103906000f080158015610083573d6000803e3d6000fd5b506000806101000a81548173ffffffffffffffffffffffffffffffffffffffff021916908373ffffffffffffffffffffffffffffffffffffffff1602179055506101b1565b6117888061074783390190565b600082825260208201905092915050565b7f446561746853616e647769636820546f6b656e00000000000000000000000000600082015250565b600061011c6013836100d5565b9150610127826100e6565b602082019050919050565b7f4445544800000000000000000000000000000000000000000000000000000000600082015250565b60006101686004836100d5565b915061017382610132565b602082019050919050565b600060408201905081810360008301526101978161010f565b905081810360208301526101aa8161015b565b9050919050565b610587806101c06000396000f3fe6080604052600436106100345760003560e01c806317cc5e1e1461003957806368004537146100645780639a777d5d1461008d575b600080fd5b34801561004557600080fd5b5061004e610097565b60405161005b91906103ac565b60405180910390f35b34801561007057600080fd5b5061008b600480360381019061008691906103f8565b610139565b005b610095610229565b005b60008060009054906101000a900473ffffffffffffffffffffffffffffffffffffffff1673ffffffffffffffffffffffffffffffffffffffff166370a08231336040518263ffffffff1660e01b81526004016100f39190610466565b602060405180830381865afa158015610110573d6000803e3d6000fd5b505050506040513d601f19601f820116820180604052508101906101349190610496565b905090565b60008054906101000a900473ffffffffffffffffffffffffffffffffffffffff1673ffffffffffffffffffffffffffffffffffffffff16632e96857f33836040518363ffffffff1660e01b81526004016101949291906104c3565b6020604051808303816000875af11580156101b3573d6000803e3d6000fd5b505050506040513d601f19601f820116820180604052508101906101d79190610524565b503373ffffffffffffffffffffffffffffffffffffffff167fcc1c2f01f6e479ad62e3b53fec5df0f9da36a2d4991582a636646fa5f0ac53778260405161021e91906103ac565b60405180910390a250565b600160009054906101000a900473ffffffffffffffffffffffffffffffffffffffff1673ffffffffffffffffffffffffffffffffffffffff166108fc349081150290604051600060405180830381858888f19350505050158015610291573d6000803e3d6000fd5b5060008054906101000a900473ffffffffffffffffffffffffffffffffffffffff1673ffffffffffffffffffffffffffffffffffffffff1663a9059cbb3368056bc75e2d631000006040518363ffffffff1660e01b81526004016102f69291906104c3565b6020604051808303816000875af1158015610315573d6000803e3d6000fd5b505050506040513d601f19601f820116820180604052508101906103399190610524565b503373ffffffffffffffffffffffffffffffffffffffff167f321c6e7a86e16e2af589594d77910bdde4b2234b28f302a8482f4409b712639768056bc75e2d6310000060405161038991906103ac565b60405180910390a2565b6000819050919050565b6103a681610393565b82525050565b60006020820190506103c1600083018461039d565b92915050565b600080fd5b6103d581610393565b81146103e057600080fd5b50565b6000813590506103f2816103cc565b92915050565b60006020828403121561040e5761040d6103c7565b5b600061041c848285016103e3565b91505092915050565b600073ffffffffffffffffffffffffffffffffffffffff82169050919050565b600061045082610425565b9050919050565b61046081610445565b82525050565b600060208201905061047b6000830184610457565b92915050565b600081519050610490816103cc565b92915050565b6000602082840312156104ac576104ab6103c7565b5b60006104ba84828501610481565b91505092915050565b60006040820190506104d86000830185610457565b6104e5602083018461039d565b9392505050565b60008115159050919050565b610501816104ec565b811461050c57600080fd5b50565b60008151905061051e816104f8565b92915050565b60006020828403121561053a576105396103c7565b5b60006105488482850161050f565b9150509291505056fea26469706673582212204cf8d70e3c6b64627728b232228189de3a5a2437cb35a474af0591834555465e64736f6c634300080d003360806040526a52b7d2dcc80cd2e40000006005553480156200002057600080fd5b506040516200178838038062001788833981810160405281019062000046919062000374565b81600190805190602001906200005e92919062000127565b5080600290805190602001906200007792919062000127565b50336000806101000a81548173ffffffffffffffffffffffffffffffffffffffff021916908373ffffffffffffffffffffffffffffffffffffffff160217905550600554600360008060009054906101000a900473ffffffffffffffffffffffffffffffffffffffff1673ffffffffffffffffffffffffffffffffffffffff1673ffffffffffffffffffffffffffffffffffffffff1681526020019081526020016000208190555050506200045d565b828054620001359062000428565b90600052602060002090601f016020900481019282620001595760008555620001a5565b82601f106200017457805160ff1916838001178555620001a5565b82800160010185558215620001a5579182015b82811115620001a457825182559160200191906001019062000187565b5b509050620001b49190620001b8565b5090565b5b80821115620001d3576000816000905550600101620001b9565b5090565b6000604051905090565b600080fd5b600080fd5b600080fd5b600080fd5b6000601f19601f8301169050919050565b7f4e487b7100000000000000000000000000000000000000000000000000000000600052604160045260246000fd5b6200024082620001f5565b810181811067ffffffffffffffff8211171562000262576200026162000206565b5b80604052505050565b600062000277620001d7565b905062000285828262000235565b919050565b600067ffffffffffffffff821115620002a857620002a762000206565b5b620002b382620001f5565b9050602081019050919050565b60005b83811015620002e0578082015181840152602081019050620002c3565b83811115620002f0576000848401525b50505050565b60006200030d62000307846200028a565b6200026b565b9050828152602081018484840111156200032c576200032b620001f0565b5b62000339848285620002c0565b509392505050565b600082601f830112620003595762000358620001eb565b5b81516200036b848260208601620002f6565b91505092915050565b600080604083850312156200038e576200038d620001e1565b5b600083015167ffffffffffffffff811115620003af57620003ae620001e6565b5b620003bd8582860162000341565b925050602083015167ffffffffffffffff811115620003e157620003e0620001e6565b5b620003ef8582860162000341565b9150509250929050565b7f4e487b7100000000000000000000000000000000000000000000000000000000600052602260045260246000fd5b600060028204905060018216806200044157607f821691505b602082108103620004575762000456620003f9565b5b50919050565b61131b806200046d6000396000f3fe608060405234801561001057600080fd5b506004361061009e5760003560e01c8063313ce56711610066578063313ce5671461016f57806370a082311461018d57806395d89b41146101bd578063a9059cbb146101db578063dd62ed3e1461020b5761009e565b806306fdde03146100a3578063095ea7b3146100c157806318160ddd146100f157806323b872dd1461010f5780632e96857f1461013f575b600080fd5b6100ab61023b565b6040516100b89190610e27565b60405180910390f35b6100db60048036038101906100d69190610ee2565b6102c9565b6040516100e89190610f3d565b60405180910390f35b6100f96103bb565b6040516101069190610f67565b60405180910390f35b61012960048036038101906101249190610f82565b6103c5565b6040516101369190610f3d565b60405180910390f35b61015960048036038101906101549190610ee2565b610796565b6040516101669190610f3d565b60405180910390f35b610177610a03565b6040516101849190610ff1565b60405180910390f35b6101a760048036038101906101a2919061100c565b610a08565b6040516101b49190610f67565b60405180910390f35b6101c5610a51565b6040516101d29190610e27565b60405180910390f35b6101f560048036038101906101f09190610ee2565b610adf565b6040516102029190610f3d565b60405180910390f35b61022560048036038101906102209190611039565b610cb4565b6040516102329190610f67565b60405180910390f35b60018054610248906110a8565b80601f0160208091040260200160405190810160405280929190818152602001828054610274906110a8565b80156102c15780601f10610296576101008083540402835291602001916102c1565b820191906000526020600020905b8154815290600101906020018083116102a457829003601f168201915b505050505081565b600081600460003373ffffffffffffffffffffffffffffffffffffffff1673ffffffffffffffffffffffffffffffffffffffff16815260200190815260200160002060008573ffffffffffffffffffffffffffffffffffffffff1673ffffffffffffffffffffffffffffffffffffffff168152602001908152602001600020819055508273ffffffffffffffffffffffffffffffffffffffff163373ffffffffffffffffffffffffffffffffffffffff167f8c5be1e5ebec7d5bd14f71427d1e84f3dd0314c0f7b2291e5b200ac8c7c3b925846040516103a99190610f67565b60405180910390a36001905092915050565b6000600554905090565b6000600360008573ffffffffffffffffffffffffffffffffffffffff1673ffffffffffffffffffffffffffffffffffffffff16815260200190815260200160002054821115610449576040517f08c379a00000000000000000000000000000000000000000000000000000000081526004016104409061114b565b60405180910390fd5b600460008573ffffffffffffffffffffffffffffffffffffffff1673ffffffffffffffffffffffffffffffffffffffff16815260200190815260200160002060003373ffffffffffffffffffffffffffffffffffffffff1673ffffffffffffffffffffffffffffffffffffffff16815260200190815260200160002054821115610508576040517f08c379a00000000000000000000000000000000000000000000000000000000081526004016104ff906111dd565b60405180910390fd5b610551600360008673ffffffffffffffffffffffffffffffffffffffff1673ffffffffffffffffffffffffffffffffffffffff1681526020019081526020016000205483610d3b565b600360008673ffffffffffffffffffffffffffffffffffffffff1673ffffffffffffffffffffffffffffffffffffffff1681526020019081526020016000208190555061061a600460008673ffffffffffffffffffffffffffffffffffffffff1673ffffffffffffffffffffffffffffffffffffffff16815260200190815260200160002060003373ffffffffffffffffffffffffffffffffffffffff1673ffffffffffffffffffffffffffffffffffffffff1681526020019081526020016000205483610d3b565b600460008673ffffffffffffffffffffffffffffffffffffffff1673ffffffffffffffffffffffffffffffffffffffff16815260200190815260200160002060003373ffffffffffffffffffffffffffffffffffffffff1673ffffffffffffffffffffffffffffffffffffffff168152602001908152602001600020819055506106e3600360008573ffffffffffffffffffffffffffffffffffffffff1673ffffffffffffffffffffffffffffffffffffffff1681526020019081526020016000205483610d62565b600360008573ffffffffffffffffffffffffffffffffffffffff1673ffffffffffffffffffffffffffffffffffffffff168152602001908152602001600020819055508273ffffffffffffffffffffffffffffffffffffffff168473ffffffffffffffffffffffffffffffffffffffff167fddf252ad1be2c89b69c2b068fc378daa952ba7f163c4a11628f55a4df523b3ef846040516107839190610f67565b60405180910390a3600190509392505050565b6000600360008473ffffffffffffffffffffffffffffffffffffffff1673ffffffffffffffffffffffffffffffffffffffff1681526020019081526020016000205482111561081a576040517f08c379a00000000000000000000000000000000000000000000000000000000081526004016108119061114b565b60405180910390fd5b610863600360008573ffffffffffffffffffffffffffffffffffffffff1673ffffffffffffffffffffffffffffffffffffffff1681526020019081526020016000205483610d3b565b600360008573ffffffffffffffffffffffffffffffffffffffff1673ffffffffffffffffffffffffffffffffffffffff16815260200190815260200160002081905550610910600360008060009054906101000a900473ffffffffffffffffffffffffffffffffffffffff1673ffffffffffffffffffffffffffffffffffffffff1673ffffffffffffffffffffffffffffffffffffffff1681526020019081526020016000205483610d62565b600360008060009054906101000a900473ffffffffffffffffffffffffffffffffffffffff1673ffffffffffffffffffffffffffffffffffffffff1673ffffffffffffffffffffffffffffffffffffffff1681526020019081526020016000208190555060008054906101000a900473ffffffffffffffffffffffffffffffffffffffff1673ffffffffffffffffffffffffffffffffffffffff168373ffffffffffffffffffffffffffffffffffffffff167fddf252ad1be2c89b69c2b068fc378daa952ba7f163c4a11628f55a4df523b3ef846040516109f19190610f67565b60405180910390a36001905092915050565b601281565b6000600360008373ffffffffffffffffffffffffffffffffffffffff1673ffffffffffffffffffffffffffffffffffffffff168152602001908152602001600020549050919050565b60028054610a5e906110a8565b80601f0160208091040260200160405190810160405280929190818152602001828054610a8a906110a8565b8015610ad75780601f10610aac57610100808354040283529160200191610ad7565b820191906000526020600020905b815481529060010190602001808311610aba57829003601f168201915b505050505081565b6000600360003373ffffffffffffffffffffffffffffffffffffffff1673ffffffffffffffffffffffffffffffffffffffff16815260200190815260200160002054821115610b2d57600080fd5b610b76600360003373ffffffffffffffffffffffffffffffffffffffff1673ffffffffffffffffffffffffffffffffffffffff1681526020019081526020016000205483610d3b565b600360003373ffffffffffffffffffffffffffffffffffffffff1673ffffffffffffffffffffffffffffffffffffffff16815260200190815260200160002081905550610c02600360008573ffffffffffffffffffffffffffffffffffffffff1673ffffffffffffffffffffffffffffffffffffffff1681526020019081526020016000205483610d62565b600360008573ffffffffffffffffffffffffffffffffffffffff1673ffffffffffffffffffffffffffffffffffffffff168152602001908152602001600020819055508273ffffffffffffffffffffffffffffffffffffffff163373ffffffffffffffffffffffffffffffffffffffff167fddf252ad1be2c89b69c2b068fc378daa952ba7f163c4a11628f55a4df523b3ef84604051610ca29190610f67565b60405180910390a36001905092915050565b6000600460008473ffffffffffffffffffffffffffffffffffffffff1673ffffffffffffffffffffffffffffffffffffffff16815260200190815260200160002060008373ffffffffffffffffffffffffffffffffffffffff1673ffffffffffffffffffffffffffffffffffffffff16815260200190815260200160002054905092915050565b600082821115610d4e57610d4d6111fd565b5b8183610d5a919061125b565b905092915050565b6000808284610d71919061128f565b905083811015610d8457610d836111fd565b5b8091505092915050565b600081519050919050565b600082825260208201905092915050565b60005b83811015610dc8578082015181840152602081019050610dad565b83811115610dd7576000848401525b50505050565b6000601f19601f8301169050919050565b6000610df982610d8e565b610e038185610d99565b9350610e13818560208601610daa565b610e1c81610ddd565b840191505092915050565b60006020820190508181036000830152610e418184610dee565b905092915050565b600080fd5b600073ffffffffffffffffffffffffffffffffffffffff82169050919050565b6000610e7982610e4e565b9050919050565b610e8981610e6e565b8114610e9457600080fd5b50565b600081359050610ea681610e80565b92915050565b6000819050919050565b610ebf81610eac565b8114610eca57600080fd5b50565b600081359050610edc81610eb6565b92915050565b60008060408385031215610ef957610ef8610e49565b5b6000610f0785828601610e97565b9250506020610f1885828601610ecd565b9150509250929050565b60008115159050919050565b610f3781610f22565b82525050565b6000602082019050610f526000830184610f2e565b92915050565b610f6181610eac565b82525050565b6000602082019050610f7c6000830184610f58565b92915050565b600080600060608486031215610f9b57610f9a610e49565b5b6000610fa986828701610e97565b9350506020610fba86828701610e97565b9250506040610fcb86828701610ecd565b9150509250925092565b600060ff82169050919050565b610feb81610fd5565b82525050565b60006020820190506110066000830184610fe2565b92915050565b60006020828403121561102257611021610e49565b5b600061103084828501610e97565b91505092915050565b600080604083850312156110505761104f610e49565b5b600061105e85828601610e97565b925050602061106f85828601610e97565b9150509250929050565b7f4e487b7100000000000000000000000000000000000000000000000000000000600052602260045260246000fd5b600060028204905060018216806110c057607f821691505b6020821081036110d3576110d2611079565b5b50919050565b7f616d6f756e7420746f207472616e73666572206d757374206265206c6573732060008201527f7468616e207573657227732062616c616e636500000000000000000000000000602082015250565b6000611135603383610d99565b9150611140826110d9565b604082019050919050565b6000602082019050818103600083015261116481611128565b9050919050565b7f616d6f756e74206d757374206265206c657373207468616e2064656c6567617460008201527f656420616d6f756e7420617070726f76656420666f72207370656e64696e6700602082015250565b60006111c7603f83610d99565b91506111d28261116b565b604082019050919050565b600060208201905081810360008301526111f6816111ba565b9050919050565b7f4e487b7100000000000000000000000000000000000000000000000000000000600052600160045260246000fd5b7f4e487b7100000000000000000000000000000000000000000000000000000000600052601160045260246000fd5b600061126682610eac565b915061127183610eac565b9250828210156112845761128361122c565b5b828203905092915050565b600061129a82610eac565b91506112a583610eac565b9250827fffffffffffffffffffffffffffffffffffffffffffffffffffffffffffffffff038211156112da576112d961122c565b5b82820190509291505056fea264697066735822122085ebd491981b184652e57c4d5b35af4b557ee474567788fb4bef4b36e439b51264736f6c634300080d0033",
  "immutableReferences": {},
  "source": "// SPDX-License-Identifier: MIT\npragma solidity >=0.4.22 <0.9.0;\n\nimport \"./GameToken.sol\"; // import ERC20 token to be used as in-game currency\n\ncontract Game {\n\n    GameToken tokens;\n    address payable gameContract;\n    string constant name = \"Death Doll\"; // ragdoll toss game\n    uint constant defaultCoinAmount = 100 * 1000000000000000000; // 100 DETH tokens\n\n    constructor()\n    {\n        gameContract = payable(msg.sender);\n        tokens = new GameToken(\"DeathSandwich Token\", \"DETH\");\n        // calling GameToken constructor here, makes the Game contract the owner of the token supply\n        // if we have a game, we can then set up COIN distribution methods within Game contract\n    }\n\n    // modifier gameOwnerOnly()\n    // {\n    //     require(msg.sender == 'deathsandwich.eth');\n    //     _;\n    // }\n\n    // function moveCoins() // only allow 'deathsandwich.eth' aka '0xf8...' to transfer eth out of the contract\n    // {\n    // }\n\n    function getUserBal()\n        public\n        view\n        returns(uint256)\n    {\n        return tokens.balanceOf(msg.sender);\n    }\n\n    // event GameApprovedForSpending(address indexed user_, address indexed contract_, uint amount_);\n    // event GameApprovalReset(address indexed user_, address indexed contrac_, uint amount_);\n    \n    // function approveSpend()\n    //     public\n    // {\n    //     tokens.approveGameContract(msg.sender, defaultCoinAmount);\n    //     emit GameApprovedForSpending(msg.sender, gameContract, defaultCoinAmount);\n    // }\n\n    // function resetSpendApproval()\n    //     private\n    // {\n    //     tokens.approveGameContract(msg.sender, 0);\n    //     emit GameApprovalReset(msg.sender, gameContract, 0);\n    // }\n\n    event UserSpentCoins(address indexed user, uint amount);\n\n    function spendCoins(uint coins)\n        public\n    {\n        tokens.directTransferFromUser(msg.sender, coins);\n        emit UserSpentCoins(msg.sender, coins);\n        // resetSpendApproval();\n    }\n\n    event UserPurchasedCoins(address indexed user, uint amount);\n    \n    function buyCoins()\n        public\n        payable\n    { // \"payable\" keyword allows a user to send along a { value } object containing Ether\n        // calculate exchange rate of $20 of ether on client and send here\n        gameContract.transfer(msg.value);\n        tokens.transfer(msg.sender, defaultCoinAmount); // send 100 DETH\n        emit UserPurchasedCoins(msg.sender, defaultCoinAmount);\n    }\n\n}",
  "sourcePath": "/home/eric/crypto-projects/truffle-mycontract/contracts/Game.sol",
  "compiler": {
    "name": "solc",
    "version": "0.8.13+commit.abaa5c0e.Emscripten.clang"
  },
  "schemaVersion": "3.4.7",
  "updatedAt": "2022-05-01T22:24:26.628Z",
  "networkType": "ethereum",
  "devdoc": {
    "kind": "dev",
    "methods": {},
    "version": 1
  },
  "userdoc": {
    "kind": "user",
    "methods": {},
    "version": 1
  }
}