{
  "contractName": "Game",
  "abi": [
    {
      "inputs": [],
      "stateMutability": "nonpayable",
      "type": "constructor"
    },
    {
      "anonymous": false,
      "inputs": [
        {
          "indexed": true,
          "internalType": "address",
          "name": "user",
          "type": "address"
        },
        {
          "indexed": false,
          "internalType": "uint256",
          "name": "amount",
          "type": "uint256"
        }
      ],
      "name": "UserPurchasedCoins",
      "type": "event"
    },
    {
      "anonymous": false,
      "inputs": [
        {
          "indexed": true,
          "internalType": "address",
          "name": "user",
          "type": "address"
        },
        {
          "indexed": false,
          "internalType": "uint256",
          "name": "amount",
          "type": "uint256"
        }
      ],
      "name": "UserSpentTokens",
      "type": "event"
    },
    {
      "inputs": [],
      "name": "getUserBal",
      "outputs": [
        {
          "internalType": "uint256",
          "name": "",
          "type": "uint256"
        }
      ],
      "stateMutability": "view",
      "type": "function",
      "constant": true
    },
    {
      "inputs": [
        {
          "internalType": "uint256",
          "name": "tokens_",
          "type": "uint256"
        }
      ],
      "name": "spendTokens",
      "outputs": [],
      "stateMutability": "nonpayable",
      "type": "function"
    },
    {
      "inputs": [],
      "name": "buyTokens",
      "outputs": [],
      "stateMutability": "payable",
      "type": "function",
      "payable": true
    }
  ],
  "bytecode": "0x608060405234801561001057600080fd5b5033600160006101000a81548173ffffffffffffffffffffffffffffffffffffffff021916908373ffffffffffffffffffffffffffffffffffffffff160217905550600160009054906101000a900473ffffffffffffffffffffffffffffffffffffffff16604051610081906100ec565b61008b9190610221565b604051809103906000f0801580156100a7573d6000803e3d6000fd5b506000806101000a81548173ffffffffffffffffffffffffffffffffffffffff021916908373ffffffffffffffffffffffffffffffffffffffff160217905550610262565b611abf806107f883390190565b600073ffffffffffffffffffffffffffffffffffffffff82169050919050565b6000819050919050565b600061013e610139610134846100f9565b610119565b6100f9565b9050919050565b600061015082610123565b9050919050565b600061016282610145565b9050919050565b61017281610157565b82525050565b600082825260208201905092915050565b7f5a6f7a6f436f696e000000000000000000000000000000000000000000000000600082015250565b60006101bf600883610178565b91506101ca82610189565b602082019050919050565b7f5a4f5a4f00000000000000000000000000000000000000000000000000000000600082015250565b600061020b600483610178565b9150610216826101d5565b602082019050919050565b60006060820190506102366000830184610169565b8181036020830152610247816101b2565b9050818103604083015261025a816101fe565b905092915050565b610587806102716000396000f3fe6080604052600436106100345760003560e01c806317cc5e1e146100395780638e39f51514610064578063d0febe4c1461008d575b600080fd5b34801561004557600080fd5b5061004e610097565b60405161005b91906103ac565b60405180910390f35b34801561007057600080fd5b5061008b600480360381019061008691906103f8565b610139565b005b610095610229565b005b60008060009054906101000a900473ffffffffffffffffffffffffffffffffffffffff1673ffffffffffffffffffffffffffffffffffffffff166370a08231336040518263ffffffff1660e01b81526004016100f39190610466565b602060405180830381865afa158015610110573d6000803e3d6000fd5b505050506040513d601f19601f820116820180604052508101906101349190610496565b905090565b60008054906101000a900473ffffffffffffffffffffffffffffffffffffffff1673ffffffffffffffffffffffffffffffffffffffff16632e96857f33836040518363ffffffff1660e01b81526004016101949291906104c3565b6020604051808303816000875af11580156101b3573d6000803e3d6000fd5b505050506040513d601f19601f820116820180604052508101906101d79190610524565b503373ffffffffffffffffffffffffffffffffffffffff167f13bd95344f841e6b17b92458b0dc87086604240bb63290e2f9fd003ac96c75f18260405161021e91906103ac565b60405180910390a250565b600160009054906101000a900473ffffffffffffffffffffffffffffffffffffffff1673ffffffffffffffffffffffffffffffffffffffff166108fc349081150290604051600060405180830381858888f19350505050158015610291573d6000803e3d6000fd5b5060008054906101000a900473ffffffffffffffffffffffffffffffffffffffff1673ffffffffffffffffffffffffffffffffffffffff1663c33099be3368056bc75e2d631000006040518363ffffffff1660e01b81526004016102f69291906104c3565b6020604051808303816000875af1158015610315573d6000803e3d6000fd5b505050506040513d601f19601f820116820180604052508101906103399190610524565b503373ffffffffffffffffffffffffffffffffffffffff167f321c6e7a86e16e2af589594d77910bdde4b2234b28f302a8482f4409b712639768056bc75e2d6310000060405161038991906103ac565b60405180910390a2565b6000819050919050565b6103a681610393565b82525050565b60006020820190506103c1600083018461039d565b92915050565b600080fd5b6103d581610393565b81146103e057600080fd5b50565b6000813590506103f2816103cc565b92915050565b60006020828403121561040e5761040d6103c7565b5b600061041c848285016103e3565b91505092915050565b600073ffffffffffffffffffffffffffffffffffffffff82169050919050565b600061045082610425565b9050919050565b61046081610445565b82525050565b600060208201905061047b6000830184610457565b92915050565b600081519050610490816103cc565b92915050565b6000602082840312156104ac576104ab6103c7565b5b60006104ba84828501610481565b91505092915050565b60006040820190506104d86000830185610457565b6104e5602083018461039d565b9392505050565b60008115159050919050565b610501816104ec565b811461050c57600080fd5b50565b60008151905061051e816104f8565b92915050565b60006020828403121561053a576105396103c7565b5b60006105488482850161050f565b9150509291505056fea2646970667358221220e4a9b6285811b929406a9f5dc848d2a5b079f65abc1ee5c2bfe2ed7b6d92f6b264736f6c634300080d003360806040526a52b7d2dcc80cd2e40000006006553480156200002057600080fd5b5060405162001abf38038062001abf83398181016040528101906200004691906200041c565b81600290805190602001906200005e9291906200016a565b508060039080519060200190620000779291906200016a565b5082600160006101000a81548173ffffffffffffffffffffffffffffffffffffffff021916908373ffffffffffffffffffffffffffffffffffffffff160217905550336000806101000a81548173ffffffffffffffffffffffffffffffffffffffff021916908373ffffffffffffffffffffffffffffffffffffffff16021790555060065460046000600160009054906101000a900473ffffffffffffffffffffffffffffffffffffffff1673ffffffffffffffffffffffffffffffffffffffff1673ffffffffffffffffffffffffffffffffffffffff168152602001908152602001600020819055505050506200051a565b8280546200017890620004e5565b90600052602060002090601f0160209004810192826200019c5760008555620001e8565b82601f10620001b757805160ff1916838001178555620001e8565b82800160010185558215620001e8579182015b82811115620001e7578251825591602001919060010190620001ca565b5b509050620001f79190620001fb565b5090565b5b8082111562000216576000816000905550600101620001fc565b5090565b6000604051905090565b600080fd5b600080fd5b600073ffffffffffffffffffffffffffffffffffffffff82169050919050565b60006200025b826200022e565b9050919050565b6200026d816200024e565b81146200027957600080fd5b50565b6000815190506200028d8162000262565b92915050565b600080fd5b600080fd5b6000601f19601f8301169050919050565b7f4e487b7100000000000000000000000000000000000000000000000000000000600052604160045260246000fd5b620002e8826200029d565b810181811067ffffffffffffffff821117156200030a5762000309620002ae565b5b80604052505050565b60006200031f6200021a565b90506200032d8282620002dd565b919050565b600067ffffffffffffffff82111562000350576200034f620002ae565b5b6200035b826200029d565b9050602081019050919050565b60005b83811015620003885780820151818401526020810190506200036b565b8381111562000398576000848401525b50505050565b6000620003b5620003af8462000332565b62000313565b905082815260208101848484011115620003d457620003d362000298565b5b620003e184828562000368565b509392505050565b600082601f83011262000401576200040062000293565b5b8151620004138482602086016200039e565b91505092915050565b60008060006060848603121562000438576200043762000224565b5b600062000448868287016200027c565b935050602084015167ffffffffffffffff8111156200046c576200046b62000229565b5b6200047a86828701620003e9565b925050604084015167ffffffffffffffff8111156200049e576200049d62000229565b5b620004ac86828701620003e9565b9150509250925092565b7f4e487b7100000000000000000000000000000000000000000000000000000000600052602260045260246000fd5b60006002820490506001821680620004fe57607f821691505b602082108103620005145762000513620004b6565b5b50919050565b611595806200052a6000396000f3fe608060405234801561001057600080fd5b50600436106100a95760003560e01c8063313ce56711610071578063313ce5671461017a57806370a082311461019857806395d89b41146101c8578063a9059cbb146101e6578063c33099be14610216578063dd62ed3e14610246576100a9565b806306fdde03146100ae578063095ea7b3146100cc57806318160ddd146100fc57806323b872dd1461011a5780632e96857f1461014a575b600080fd5b6100b6610276565b6040516100c391906110a1565b60405180910390f35b6100e660048036038101906100e1919061115c565b610304565b6040516100f391906111b7565b60405180910390f35b6101046103f6565b60405161011191906111e1565b60405180910390f35b610134600480360381019061012f91906111fc565b610400565b60405161014191906111b7565b60405180910390f35b610164600480360381019061015f919061115c565b6107d1565b60405161017191906111b7565b60405180910390f35b610182610a42565b60405161018f919061126b565b60405180910390f35b6101b260048036038101906101ad9190611286565b610a47565b6040516101bf91906111e1565b60405180910390f35b6101d0610a90565b6040516101dd91906110a1565b60405180910390f35b61020060048036038101906101fb919061115c565b610b1e565b60405161020d91906111b7565b60405180910390f35b610230600480360381019061022b919061115c565b610cf3565b60405161023d91906111b7565b60405180910390f35b610260600480360381019061025b91906112b3565b610f2e565b60405161026d91906111e1565b60405180910390f35b6002805461028390611322565b80601f01602080910402602001604051908101604052809291908181526020018280546102af90611322565b80156102fc5780601f106102d1576101008083540402835291602001916102fc565b820191906000526020600020905b8154815290600101906020018083116102df57829003601f168201915b505050505081565b600081600560003373ffffffffffffffffffffffffffffffffffffffff1673ffffffffffffffffffffffffffffffffffffffff16815260200190815260200160002060008573ffffffffffffffffffffffffffffffffffffffff1673ffffffffffffffffffffffffffffffffffffffff168152602001908152602001600020819055508273ffffffffffffffffffffffffffffffffffffffff163373ffffffffffffffffffffffffffffffffffffffff167f8c5be1e5ebec7d5bd14f71427d1e84f3dd0314c0f7b2291e5b200ac8c7c3b925846040516103e491906111e1565b60405180910390a36001905092915050565b6000600654905090565b6000600460008573ffffffffffffffffffffffffffffffffffffffff1673ffffffffffffffffffffffffffffffffffffffff16815260200190815260200160002054821115610484576040517f08c379a000000000000000000000000000000000000000000000000000000000815260040161047b906113c5565b60405180910390fd5b600560008573ffffffffffffffffffffffffffffffffffffffff1673ffffffffffffffffffffffffffffffffffffffff16815260200190815260200160002060003373ffffffffffffffffffffffffffffffffffffffff1673ffffffffffffffffffffffffffffffffffffffff16815260200190815260200160002054821115610543576040517f08c379a000000000000000000000000000000000000000000000000000000000815260040161053a90611457565b60405180910390fd5b61058c600460008673ffffffffffffffffffffffffffffffffffffffff1673ffffffffffffffffffffffffffffffffffffffff1681526020019081526020016000205483610fb5565b600460008673ffffffffffffffffffffffffffffffffffffffff1673ffffffffffffffffffffffffffffffffffffffff16815260200190815260200160002081905550610655600560008673ffffffffffffffffffffffffffffffffffffffff1673ffffffffffffffffffffffffffffffffffffffff16815260200190815260200160002060003373ffffffffffffffffffffffffffffffffffffffff1673ffffffffffffffffffffffffffffffffffffffff1681526020019081526020016000205483610fb5565b600560008673ffffffffffffffffffffffffffffffffffffffff1673ffffffffffffffffffffffffffffffffffffffff16815260200190815260200160002060003373ffffffffffffffffffffffffffffffffffffffff1673ffffffffffffffffffffffffffffffffffffffff1681526020019081526020016000208190555061071e600460008573ffffffffffffffffffffffffffffffffffffffff1673ffffffffffffffffffffffffffffffffffffffff1681526020019081526020016000205483610fdc565b600460008573ffffffffffffffffffffffffffffffffffffffff1673ffffffffffffffffffffffffffffffffffffffff168152602001908152602001600020819055508273ffffffffffffffffffffffffffffffffffffffff168473ffffffffffffffffffffffffffffffffffffffff167fddf252ad1be2c89b69c2b068fc378daa952ba7f163c4a11628f55a4df523b3ef846040516107be91906111e1565b60405180910390a3600190509392505050565b6000600460008473ffffffffffffffffffffffffffffffffffffffff1673ffffffffffffffffffffffffffffffffffffffff16815260200190815260200160002054821115610855576040517f08c379a000000000000000000000000000000000000000000000000000000000815260040161084c906113c5565b60405180910390fd5b61089e600460008573ffffffffffffffffffffffffffffffffffffffff1673ffffffffffffffffffffffffffffffffffffffff1681526020019081526020016000205483610fb5565b600460008573ffffffffffffffffffffffffffffffffffffffff1673ffffffffffffffffffffffffffffffffffffffff1681526020019081526020016000208190555061094c60046000600160009054906101000a900473ffffffffffffffffffffffffffffffffffffffff1673ffffffffffffffffffffffffffffffffffffffff1673ffffffffffffffffffffffffffffffffffffffff1681526020019081526020016000205483610fdc565b60046000600160009054906101000a900473ffffffffffffffffffffffffffffffffffffffff1673ffffffffffffffffffffffffffffffffffffffff1673ffffffffffffffffffffffffffffffffffffffff16815260200190815260200160002081905550600160009054906101000a900473ffffffffffffffffffffffffffffffffffffffff1673ffffffffffffffffffffffffffffffffffffffff168373ffffffffffffffffffffffffffffffffffffffff167fddf252ad1be2c89b69c2b068fc378daa952ba7f163c4a11628f55a4df523b3ef84604051610a3091906111e1565b60405180910390a36001905092915050565b601281565b6000600460008373ffffffffffffffffffffffffffffffffffffffff1673ffffffffffffffffffffffffffffffffffffffff168152602001908152602001600020549050919050565b60038054610a9d90611322565b80601f0160208091040260200160405190810160405280929190818152602001828054610ac990611322565b8015610b165780601f10610aeb57610100808354040283529160200191610b16565b820191906000526020600020905b815481529060010190602001808311610af957829003601f168201915b505050505081565b6000600460003373ffffffffffffffffffffffffffffffffffffffff1673ffffffffffffffffffffffffffffffffffffffff16815260200190815260200160002054821115610b6c57600080fd5b610bb5600460003373ffffffffffffffffffffffffffffffffffffffff1673ffffffffffffffffffffffffffffffffffffffff1681526020019081526020016000205483610fb5565b600460003373ffffffffffffffffffffffffffffffffffffffff1673ffffffffffffffffffffffffffffffffffffffff16815260200190815260200160002081905550610c41600460008573ffffffffffffffffffffffffffffffffffffffff1673ffffffffffffffffffffffffffffffffffffffff1681526020019081526020016000205483610fdc565b600460008573ffffffffffffffffffffffffffffffffffffffff1673ffffffffffffffffffffffffffffffffffffffff168152602001908152602001600020819055508273ffffffffffffffffffffffffffffffffffffffff163373ffffffffffffffffffffffffffffffffffffffff167fddf252ad1be2c89b69c2b068fc378daa952ba7f163c4a11628f55a4df523b3ef84604051610ce191906111e1565b60405180910390a36001905092915050565b600060046000600160009054906101000a900473ffffffffffffffffffffffffffffffffffffffff1673ffffffffffffffffffffffffffffffffffffffff1673ffffffffffffffffffffffffffffffffffffffff16815260200190815260200160002054821115610d6357600080fd5b610dce60046000600160009054906101000a900473ffffffffffffffffffffffffffffffffffffffff1673ffffffffffffffffffffffffffffffffffffffff1673ffffffffffffffffffffffffffffffffffffffff1681526020019081526020016000205483610fb5565b60046000600160009054906101000a900473ffffffffffffffffffffffffffffffffffffffff1673ffffffffffffffffffffffffffffffffffffffff1673ffffffffffffffffffffffffffffffffffffffff16815260200190815260200160002081905550610e7c600460008573ffffffffffffffffffffffffffffffffffffffff1673ffffffffffffffffffffffffffffffffffffffff1681526020019081526020016000205483610fdc565b600460008573ffffffffffffffffffffffffffffffffffffffff1673ffffffffffffffffffffffffffffffffffffffff168152602001908152602001600020819055508273ffffffffffffffffffffffffffffffffffffffff163373ffffffffffffffffffffffffffffffffffffffff167fddf252ad1be2c89b69c2b068fc378daa952ba7f163c4a11628f55a4df523b3ef84604051610f1c91906111e1565b60405180910390a36001905092915050565b6000600560008473ffffffffffffffffffffffffffffffffffffffff1673ffffffffffffffffffffffffffffffffffffffff16815260200190815260200160002060008373ffffffffffffffffffffffffffffffffffffffff1673ffffffffffffffffffffffffffffffffffffffff16815260200190815260200160002054905092915050565b600082821115610fc857610fc7611477565b5b8183610fd491906114d5565b905092915050565b6000808284610feb9190611509565b905083811015610ffe57610ffd611477565b5b8091505092915050565b600081519050919050565b600082825260208201905092915050565b60005b83811015611042578082015181840152602081019050611027565b83811115611051576000848401525b50505050565b6000601f19601f8301169050919050565b600061107382611008565b61107d8185611013565b935061108d818560208601611024565b61109681611057565b840191505092915050565b600060208201905081810360008301526110bb8184611068565b905092915050565b600080fd5b600073ffffffffffffffffffffffffffffffffffffffff82169050919050565b60006110f3826110c8565b9050919050565b611103816110e8565b811461110e57600080fd5b50565b600081359050611120816110fa565b92915050565b6000819050919050565b61113981611126565b811461114457600080fd5b50565b60008135905061115681611130565b92915050565b60008060408385031215611173576111726110c3565b5b600061118185828601611111565b925050602061119285828601611147565b9150509250929050565b60008115159050919050565b6111b18161119c565b82525050565b60006020820190506111cc60008301846111a8565b92915050565b6111db81611126565b82525050565b60006020820190506111f660008301846111d2565b92915050565b600080600060608486031215611215576112146110c3565b5b600061122386828701611111565b935050602061123486828701611111565b925050604061124586828701611147565b9150509250925092565b600060ff82169050919050565b6112658161124f565b82525050565b6000602082019050611280600083018461125c565b92915050565b60006020828403121561129c5761129b6110c3565b5b60006112aa84828501611111565b91505092915050565b600080604083850312156112ca576112c96110c3565b5b60006112d885828601611111565b92505060206112e985828601611111565b9150509250929050565b7f4e487b7100000000000000000000000000000000000000000000000000000000600052602260045260246000fd5b6000600282049050600182168061133a57607f821691505b60208210810361134d5761134c6112f3565b5b50919050565b7f616d6f756e7420746f207472616e73666572206d757374206265206c6573732060008201527f7468616e207573657227732062616c616e636500000000000000000000000000602082015250565b60006113af603383611013565b91506113ba82611353565b604082019050919050565b600060208201905081810360008301526113de816113a2565b9050919050565b7f616d6f756e74206d757374206265206c657373207468616e2064656c6567617460008201527f656420616d6f756e7420617070726f76656420666f72207370656e64696e6700602082015250565b6000611441603f83611013565b915061144c826113e5565b604082019050919050565b6000602082019050818103600083015261147081611434565b9050919050565b7f4e487b7100000000000000000000000000000000000000000000000000000000600052600160045260246000fd5b7f4e487b7100000000000000000000000000000000000000000000000000000000600052601160045260246000fd5b60006114e082611126565b91506114eb83611126565b9250828210156114fe576114fd6114a6565b5b828203905092915050565b600061151482611126565b915061151f83611126565b9250827fffffffffffffffffffffffffffffffffffffffffffffffffffffffffffffffff03821115611554576115536114a6565b5b82820190509291505056fea2646970667358221220c374d6d201388463001f7560e2d4439b5aee6a866620b0ed9e0b8ddaf43e37f864736f6c634300080d0033",
  "immutableReferences": {},
  "source": "// SPDX-License-Identifier: MIT\npragma solidity >=0.4.22 <0.9.0;\n\nimport \"./GameToken.sol\"; // import ERC20 token to be used as in-game currency\n\ncontract Game {\n\n    GameToken tokens;\n    address payable gameContractOwner;\n    string constant name = \"Game Contract\";\n    uint constant defaultTokenAmount = 100 * 1000000000000000000; // 100 tokens\n\n    constructor()\n    {\n        gameContractOwner = payable(msg.sender);\n        // need to set the owner in GameToken to msg.sender here...\n        tokens = new GameToken(gameContractOwner, \"ZozoCoin\", \"ZOZO\");\n        // calling GameToken constructor here, makes the Game contract the owner of the token supply\n        // if we have a game, we can then set up COIN distribution methods within Game contract\n    }\n\n    function getUserBal()\n        public\n        view\n        returns(uint256)\n    {\n        return tokens.balanceOf(msg.sender);\n    }\n\n    event UserSpentTokens(address indexed user, uint amount);\n\n    function spendTokens(uint tokens_)\n        public\n    {\n        tokens.directTransferFromUser(msg.sender, tokens_);\n        emit UserSpentTokens(msg.sender, tokens_);\n    }\n\n    event UserPurchasedCoins(address indexed user, uint amount);\n    \n    function buyTokens()\n        public\n        payable\n    { // \"payable\" keyword allows a user to send along a { value } object containing Ether\n        // calculate exchange rate of $20 of ether on client and send here\n        gameContractOwner.transfer(msg.value);\n        // tokens.transfer(msg.sender, defaultTokenAmount); // send 100 Tokens\n        tokens.transferFromContractOwner(msg.sender, defaultTokenAmount); // send 100 Tokens\n        emit UserPurchasedCoins(msg.sender, defaultTokenAmount);\n    }\n\n}",
  "sourcePath": "/home/eric/crypto-projects/truffle-mycontract/contracts/Game.sol",
  "compiler": {
    "name": "solc",
    "version": "0.8.13+commit.abaa5c0e.Emscripten.clang"
  },
  "schemaVersion": "3.4.7",
  "updatedAt": "2022-05-02T05:02:53.955Z",
  "networkType": "ethereum",
  "devdoc": {
    "kind": "dev",
    "methods": {},
    "version": 1
  },
  "userdoc": {
    "kind": "user",
    "methods": {},
    "version": 1
  }
}