{
  "contractName": "Game",
  "abi": [
    {
      "inputs": [],
      "stateMutability": "nonpayable",
      "type": "constructor"
    },
    {
      "inputs": [
        {
          "internalType": "address",
          "name": "address_",
          "type": "address"
        }
      ],
      "name": "getTokenBal",
      "outputs": [
        {
          "internalType": "uint256",
          "name": "",
          "type": "uint256"
        }
      ],
      "stateMutability": "view",
      "type": "function",
      "constant": true
    },
    {
      "inputs": [],
      "name": "getTokenSupply",
      "outputs": [
        {
          "internalType": "uint256",
          "name": "",
          "type": "uint256"
        }
      ],
      "stateMutability": "view",
      "type": "function",
      "constant": true
    },
    {
      "inputs": [
        {
          "internalType": "address",
          "name": "receiver",
          "type": "address"
        },
        {
          "internalType": "uint256",
          "name": "numTokens",
          "type": "uint256"
        }
      ],
      "name": "transfer",
      "outputs": [],
      "stateMutability": "nonpayable",
      "type": "function"
    },
    {
      "inputs": [
        {
          "internalType": "address",
          "name": "address_",
          "type": "address"
        }
      ],
      "name": "checkBal",
      "outputs": [
        {
          "internalType": "bool",
          "name": "",
          "type": "bool"
        }
      ],
      "stateMutability": "view",
      "type": "function",
      "constant": true
    },
    {
      "inputs": [
        {
          "internalType": "address",
          "name": "user",
          "type": "address"
        },
        {
          "internalType": "uint256",
          "name": "n",
          "type": "uint256"
        }
      ],
      "name": "userBuysCoins",
      "outputs": [],
      "stateMutability": "nonpayable",
      "type": "function"
    }
  ],
  "bytecode": "0x608060405234801561001057600080fd5b5033600160006101000a81548173ffffffffffffffffffffffffffffffffffffffff021916908373ffffffffffffffffffffffffffffffffffffffff16021790555060405161005e906100bf565b604051809103906000f08015801561007a573d6000803e3d6000fd5b506000806101000a81548173ffffffffffffffffffffffffffffffffffffffff021916908373ffffffffffffffffffffffffffffffffffffffff1602179055506100cc565b610eaf8061072783390190565b61064c806100db6000396000f3fe608060405234801561001057600080fd5b50600436106100575760003560e01c8063584a09271461005c578063a9059cbb1461008c578063ad974f4c146100a8578063e60bc3aa146100c6578063e90f87d4146100f6575b600080fd5b61007660048036038101906100719190610425565b610112565b604051610083919061046d565b60405180910390f35b6100a660048036038101906100a191906104be565b610141565b005b6100b06101e4565b6040516100bd919061050d565b60405180910390f35b6100e060048036038101906100db9190610425565b61027b565b6040516100ed919061050d565b60405180910390f35b610110600480360381019061010b91906104be565b61031f565b005b600069d3c21bcecceda10000006101288361027b565b1015610137576000905061013c565b600190505b919050565b60008054906101000a900473ffffffffffffffffffffffffffffffffffffffff1673ffffffffffffffffffffffffffffffffffffffff1663a9059cbb83836040518363ffffffff1660e01b815260040161019c929190610537565b6020604051808303816000875af11580156101bb573d6000803e3d6000fd5b505050506040513d601f19601f820116820180604052508101906101df919061058c565b505050565b60008060009054906101000a900473ffffffffffffffffffffffffffffffffffffffff1673ffffffffffffffffffffffffffffffffffffffff166318160ddd6040518163ffffffff1660e01b8152600401602060405180830381865afa158015610252573d6000803e3d6000fd5b505050506040513d601f19601f8201168201806040525081019061027691906105ce565b905090565b60008060009054906101000a900473ffffffffffffffffffffffffffffffffffffffff1673ffffffffffffffffffffffffffffffffffffffff166370a08231836040518263ffffffff1660e01b81526004016102d791906105fb565b602060405180830381865afa1580156102f4573d6000803e3d6000fd5b505050506040513d601f19601f8201168201806040525081019061031891906105ce565b9050919050565b60008054906101000a900473ffffffffffffffffffffffffffffffffffffffff1673ffffffffffffffffffffffffffffffffffffffff1663a9059cbb83836040518363ffffffff1660e01b815260040161037a929190610537565b6020604051808303816000875af1158015610399573d6000803e3d6000fd5b505050506040513d601f19601f820116820180604052508101906103bd919061058c565b505050565b600080fd5b600073ffffffffffffffffffffffffffffffffffffffff82169050919050565b60006103f2826103c7565b9050919050565b610402816103e7565b811461040d57600080fd5b50565b60008135905061041f816103f9565b92915050565b60006020828403121561043b5761043a6103c2565b5b600061044984828501610410565b91505092915050565b60008115159050919050565b61046781610452565b82525050565b6000602082019050610482600083018461045e565b92915050565b6000819050919050565b61049b81610488565b81146104a657600080fd5b50565b6000813590506104b881610492565b92915050565b600080604083850312156104d5576104d46103c2565b5b60006104e385828601610410565b92505060206104f4858286016104a9565b9150509250929050565b61050781610488565b82525050565b600060208201905061052260008301846104fe565b92915050565b610531816103e7565b82525050565b600060408201905061054c6000830185610528565b61055960208301846104fe565b9392505050565b61056981610452565b811461057457600080fd5b50565b60008151905061058681610560565b92915050565b6000602082840312156105a2576105a16103c2565b5b60006105b084828501610577565b91505092915050565b6000815190506105c881610492565b92915050565b6000602082840312156105e4576105e36103c2565b5b60006105f2848285016105b9565b91505092915050565b60006020820190506106106000830184610528565b9291505056fea2646970667358221220af207b1ff2fc13821dbc759d6a8f30737c5a104652a3ea3bee035e3fb887887164736f6c634300080d003360806040526a115eec47f6cf7e3500000060035534801561001f57600080fd5b50336000806101000a81548173ffffffffffffffffffffffffffffffffffffffff021916908373ffffffffffffffffffffffffffffffffffffffff160217905550600354600160008060009054906101000a900473ffffffffffffffffffffffffffffffffffffffff1673ffffffffffffffffffffffffffffffffffffffff1673ffffffffffffffffffffffffffffffffffffffff16815260200190815260200160002081905550610dd9806100d66000396000f3fe608060405234801561001057600080fd5b50600436106100935760003560e01c8063313ce56711610066578063313ce5671461013457806370a082311461015257806395d89b4114610182578063a9059cbb146101a0578063dd62ed3e146101d057610093565b806306fdde0314610098578063095ea7b3146100b657806318160ddd146100e657806323b872dd14610104575b600080fd5b6100a0610200565b6040516100ad9190610a69565b60405180910390f35b6100d060048036038101906100cb9190610b24565b610239565b6040516100dd9190610b7f565b60405180910390f35b6100ee61032b565b6040516100fb9190610ba9565b60405180910390f35b61011e60048036038101906101199190610bc4565b610335565b60405161012b9190610b7f565b60405180910390f35b61013c61069a565b6040516101499190610c33565b60405180910390f35b61016c60048036038101906101679190610c4e565b61069f565b6040516101799190610ba9565b60405180910390f35b61018a6106e8565b6040516101979190610a69565b60405180910390f35b6101ba60048036038101906101b59190610b24565b610721565b6040516101c79190610b7f565b60405180910390f35b6101ea60048036038101906101e59190610c7b565b6108f6565b6040516101f79190610ba9565b60405180910390f35b6040518060400160405280600981526020017f47616d65546f6b656e000000000000000000000000000000000000000000000081525081565b600081600260003373ffffffffffffffffffffffffffffffffffffffff1673ffffffffffffffffffffffffffffffffffffffff16815260200190815260200160002060008573ffffffffffffffffffffffffffffffffffffffff1673ffffffffffffffffffffffffffffffffffffffff168152602001908152602001600020819055508273ffffffffffffffffffffffffffffffffffffffff163373ffffffffffffffffffffffffffffffffffffffff167f8c5be1e5ebec7d5bd14f71427d1e84f3dd0314c0f7b2291e5b200ac8c7c3b925846040516103199190610ba9565b60405180910390a36001905092915050565b6000600354905090565b6000600160008573ffffffffffffffffffffffffffffffffffffffff1673ffffffffffffffffffffffffffffffffffffffff1681526020019081526020016000205482111561038357600080fd5b600260008573ffffffffffffffffffffffffffffffffffffffff1673ffffffffffffffffffffffffffffffffffffffff16815260200190815260200160002060003373ffffffffffffffffffffffffffffffffffffffff1673ffffffffffffffffffffffffffffffffffffffff1681526020019081526020016000205482111561040c57600080fd5b610455600160008673ffffffffffffffffffffffffffffffffffffffff1673ffffffffffffffffffffffffffffffffffffffff168152602001908152602001600020548361097d565b600160008673ffffffffffffffffffffffffffffffffffffffff1673ffffffffffffffffffffffffffffffffffffffff1681526020019081526020016000208190555061051e600260008673ffffffffffffffffffffffffffffffffffffffff1673ffffffffffffffffffffffffffffffffffffffff16815260200190815260200160002060003373ffffffffffffffffffffffffffffffffffffffff1673ffffffffffffffffffffffffffffffffffffffff168152602001908152602001600020548361097d565b600260008673ffffffffffffffffffffffffffffffffffffffff1673ffffffffffffffffffffffffffffffffffffffff16815260200190815260200160002060003373ffffffffffffffffffffffffffffffffffffffff1673ffffffffffffffffffffffffffffffffffffffff168152602001908152602001600020819055506105e7600160008573ffffffffffffffffffffffffffffffffffffffff1673ffffffffffffffffffffffffffffffffffffffff16815260200190815260200160002054836109a4565b600160008573ffffffffffffffffffffffffffffffffffffffff1673ffffffffffffffffffffffffffffffffffffffff168152602001908152602001600020819055508273ffffffffffffffffffffffffffffffffffffffff168473ffffffffffffffffffffffffffffffffffffffff167fddf252ad1be2c89b69c2b068fc378daa952ba7f163c4a11628f55a4df523b3ef846040516106879190610ba9565b60405180910390a3600190509392505050565b601281565b6000600160008373ffffffffffffffffffffffffffffffffffffffff1673ffffffffffffffffffffffffffffffffffffffff168152602001908152602001600020549050919050565b6040518060400160405280600481526020017f434f494e0000000000000000000000000000000000000000000000000000000081525081565b6000600160003373ffffffffffffffffffffffffffffffffffffffff1673ffffffffffffffffffffffffffffffffffffffff1681526020019081526020016000205482111561076f57600080fd5b6107b8600160003373ffffffffffffffffffffffffffffffffffffffff1673ffffffffffffffffffffffffffffffffffffffff168152602001908152602001600020548361097d565b600160003373ffffffffffffffffffffffffffffffffffffffff1673ffffffffffffffffffffffffffffffffffffffff16815260200190815260200160002081905550610844600160008573ffffffffffffffffffffffffffffffffffffffff1673ffffffffffffffffffffffffffffffffffffffff16815260200190815260200160002054836109a4565b600160008573ffffffffffffffffffffffffffffffffffffffff1673ffffffffffffffffffffffffffffffffffffffff168152602001908152602001600020819055508273ffffffffffffffffffffffffffffffffffffffff163373ffffffffffffffffffffffffffffffffffffffff167fddf252ad1be2c89b69c2b068fc378daa952ba7f163c4a11628f55a4df523b3ef846040516108e49190610ba9565b60405180910390a36001905092915050565b6000600260008473ffffffffffffffffffffffffffffffffffffffff1673ffffffffffffffffffffffffffffffffffffffff16815260200190815260200160002060008373ffffffffffffffffffffffffffffffffffffffff1673ffffffffffffffffffffffffffffffffffffffff16815260200190815260200160002054905092915050565b6000828211156109905761098f610cbb565b5b818361099c9190610d19565b905092915050565b60008082846109b39190610d4d565b9050838110156109c6576109c5610cbb565b5b8091505092915050565b600081519050919050565b600082825260208201905092915050565b60005b83811015610a0a5780820151818401526020810190506109ef565b83811115610a19576000848401525b50505050565b6000601f19601f8301169050919050565b6000610a3b826109d0565b610a4581856109db565b9350610a558185602086016109ec565b610a5e81610a1f565b840191505092915050565b60006020820190508181036000830152610a838184610a30565b905092915050565b600080fd5b600073ffffffffffffffffffffffffffffffffffffffff82169050919050565b6000610abb82610a90565b9050919050565b610acb81610ab0565b8114610ad657600080fd5b50565b600081359050610ae881610ac2565b92915050565b6000819050919050565b610b0181610aee565b8114610b0c57600080fd5b50565b600081359050610b1e81610af8565b92915050565b60008060408385031215610b3b57610b3a610a8b565b5b6000610b4985828601610ad9565b9250506020610b5a85828601610b0f565b9150509250929050565b60008115159050919050565b610b7981610b64565b82525050565b6000602082019050610b946000830184610b70565b92915050565b610ba381610aee565b82525050565b6000602082019050610bbe6000830184610b9a565b92915050565b600080600060608486031215610bdd57610bdc610a8b565b5b6000610beb86828701610ad9565b9350506020610bfc86828701610ad9565b9250506040610c0d86828701610b0f565b9150509250925092565b600060ff82169050919050565b610c2d81610c17565b82525050565b6000602082019050610c486000830184610c24565b92915050565b600060208284031215610c6457610c63610a8b565b5b6000610c7284828501610ad9565b91505092915050565b60008060408385031215610c9257610c91610a8b565b5b6000610ca085828601610ad9565b9250506020610cb185828601610ad9565b9150509250929050565b7f4e487b7100000000000000000000000000000000000000000000000000000000600052600160045260246000fd5b7f4e487b7100000000000000000000000000000000000000000000000000000000600052601160045260246000fd5b6000610d2482610aee565b9150610d2f83610aee565b925082821015610d4257610d41610cea565b5b828203905092915050565b6000610d5882610aee565b9150610d6383610aee565b9250827fffffffffffffffffffffffffffffffffffffffffffffffffffffffffffffffff03821115610d9857610d97610cea565b5b82820190509291505056fea26469706673582212201ce15c7fdcf13ffadf64500e0842d43fdff077723e677e81f604e43dbc0696a664736f6c634300080d0033",
  "immutableReferences": {},
  "source": "// SPDX-License-Identifier: MIT\npragma solidity >=0.4.22 <0.9.0;\n\nimport \"./GameToken.sol\"; // import ERC20 token to be used as in-game currency\n\ncontract Game {\n\n    GameToken tokens;\n    address contract_;\n\n    constructor()\n    {\n        contract_ = msg.sender;\n        tokens = new GameToken();\n        // calling GameToken constructor here, makes the Factory contract the owner of the token supply\n        // if we have a game, we can then set up COIN distribution methods within Factory\n    }\n\n    function getTokenBal(address address_)\n        public\n        view\n        returns(uint256)\n    {\n        return tokens.balanceOf(address_);\n    }\n\n    function getTokenSupply()\n        public\n        view\n        returns(uint256)\n    {\n        return tokens.totalSupply();   \n    }\n\n    function transfer(address receiver, uint256 numTokens)\n        external\n    {\n        tokens.transfer(receiver, numTokens);\n    }\n\n    function checkBal(address address_)\n        public\n        view\n        returns(bool)\n    {\n        if (getTokenBal(address_) < 1000000 ether) {\n            return false;\n        }\n        return true;\n    }\n\n    function userBuysCoins(address user, uint n)\n        public\n    {\n        // write methods that handle the transfer of ETH\n        // after ETH is transferred, distribute the COINs\n        // to the buyer to use in-game\n\n        tokens.transfer(user, n);\n    }\n\n}",
  "sourcePath": "/home/eric/crypto-projects/truffle-mycontract/contracts/Game.sol",
  "compiler": {
    "name": "solc",
    "version": "0.8.13+commit.abaa5c0e.Emscripten.clang"
  },
  "schemaVersion": "3.4.7",
  "updatedAt": "2022-04-26T05:49:53.049Z",
  "networkType": "ethereum",
  "devdoc": {
    "kind": "dev",
    "methods": {},
    "version": 1
  },
  "userdoc": {
    "kind": "user",
    "methods": {},
    "version": 1
  }
}