{
  "contractName": "MyContract",
  "abi": [
    {
      "inputs": [],
      "stateMutability": "nonpayable",
      "type": "constructor"
    },
    {
      "inputs": [],
      "name": "hitContract",
      "outputs": [],
      "stateMutability": "nonpayable",
      "type": "function"
    },
    {
      "inputs": [],
      "name": "getUserData",
      "outputs": [
        {
          "components": [
            {
              "internalType": "address",
              "name": "address_",
              "type": "address"
            },
            {
              "internalType": "uint256",
              "name": "id",
              "type": "uint256"
            },
            {
              "internalType": "uint256",
              "name": "count",
              "type": "uint256"
            },
            {
              "internalType": "bool",
              "name": "accessedFlag",
              "type": "bool"
            }
          ],
          "internalType": "struct MyContract.User",
          "name": "",
          "type": "tuple"
        }
      ],
      "stateMutability": "view",
      "type": "function"
    },
    {
      "inputs": [],
      "name": "getAllInteractions",
      "outputs": [
        {
          "components": [
            {
              "internalType": "address",
              "name": "address_",
              "type": "address"
            },
            {
              "internalType": "uint256",
              "name": "id",
              "type": "uint256"
            },
            {
              "internalType": "uint256",
              "name": "count",
              "type": "uint256"
            },
            {
              "internalType": "bool",
              "name": "accessedFlag",
              "type": "bool"
            }
          ],
          "internalType": "struct MyContract.User[]",
          "name": "",
          "type": "tuple[]"
        }
      ],
      "stateMutability": "view",
      "type": "function"
    }
  ],
  "bytecode": "0x608060405234801561001057600080fd5b50336000806101000a81548173ffffffffffffffffffffffffffffffffffffffff021916908373ffffffffffffffffffffffffffffffffffffffff1602179055506000600181905550610a03806100686000396000f3fe608060405234801561001057600080fd5b50600436106100415760003560e01c806322e8c87d1461004657806345dddee114610064578063c0748a3f1461006e575b600080fd5b61004e61008c565b60405161005b9190610714565b60405180910390f35b61006c6101f7565b005b6100766104c5565b6040516100839190610833565b60405180910390f35b61009461060a565b600260003373ffffffffffffffffffffffffffffffffffffffff1673ffffffffffffffffffffffffffffffffffffffff16815260200190815260200160002060030160009054906101000a900460ff16610123576040517f08c379a000000000000000000000000000000000000000000000000000000000815260040161011a906108d8565b60405180910390fd5b600260003373ffffffffffffffffffffffffffffffffffffffff1673ffffffffffffffffffffffffffffffffffffffff1681526020019081526020016000206040518060800160405290816000820160009054906101000a900473ffffffffffffffffffffffffffffffffffffffff1673ffffffffffffffffffffffffffffffffffffffff1673ffffffffffffffffffffffffffffffffffffffff16815260200160018201548152602001600282015481526020016003820160009054906101000a900460ff161515151581525050905090565b600260003373ffffffffffffffffffffffffffffffffffffffff1673ffffffffffffffffffffffffffffffffffffffff16815260200190815260200160002060030160009054906101000a900460ff166103fc57600060405180608001604052803373ffffffffffffffffffffffffffffffffffffffff16815260200160015481526020016001815260200160011515815250905080600260003373ffffffffffffffffffffffffffffffffffffffff1673ffffffffffffffffffffffffffffffffffffffff16815260200190815260200160002060008201518160000160006101000a81548173ffffffffffffffffffffffffffffffffffffffff021916908373ffffffffffffffffffffffffffffffffffffffff160217905550602082015181600101556040820151816002015560608201518160030160006101000a81548160ff0219169083151502179055509050508060036000600154815260200190815260200160002060008201518160000160006101000a81548173ffffffffffffffffffffffffffffffffffffffff021916908373ffffffffffffffffffffffffffffffffffffffff160217905550602082015181600101556040820151816002015560608201518160030160006101000a81548160ff021916908315150217905550905050600160008154809291906103f190610927565b9190505550506104c3565b600260003373ffffffffffffffffffffffffffffffffffffffff1673ffffffffffffffffffffffffffffffffffffffff168152602001908152602001600020600201600081548092919061044f90610927565b919050555060036000600260003373ffffffffffffffffffffffffffffffffffffffff1673ffffffffffffffffffffffffffffffffffffffff16815260200190815260200160002060010154815260200190815260200160002060020160008154809291906104bd90610927565b91905055505b565b6060600060015467ffffffffffffffff8111156104e5576104e461096f565b5b60405190808252806020026020018201604052801561051e57816020015b61050b61060a565b8152602001906001900390816105035790505b50905060005b60015481101561060257600360008281526020019081526020016000206040518060800160405290816000820160009054906101000a900473ffffffffffffffffffffffffffffffffffffffff1673ffffffffffffffffffffffffffffffffffffffff1673ffffffffffffffffffffffffffffffffffffffff16815260200160018201548152602001600282015481526020016003820160009054906101000a900460ff1615151515815250508282815181106105e4576105e361099e565b5b602002602001018190525080806105fa90610927565b915050610524565b508091505090565b6040518060800160405280600073ffffffffffffffffffffffffffffffffffffffff16815260200160008152602001600081526020016000151581525090565b600073ffffffffffffffffffffffffffffffffffffffff82169050919050565b60006106758261064a565b9050919050565b6106858161066a565b82525050565b6000819050919050565b61069e8161068b565b82525050565b60008115159050919050565b6106b9816106a4565b82525050565b6080820160008201516106d5600085018261067c565b5060208201516106e86020850182610695565b5060408201516106fb6040850182610695565b50606082015161070e60608501826106b0565b50505050565b600060808201905061072960008301846106bf565b92915050565b600081519050919050565b600082825260208201905092915050565b6000819050602082019050919050565b608082016000820151610771600085018261067c565b5060208201516107846020850182610695565b5060408201516107976040850182610695565b5060608201516107aa60608501826106b0565b50505050565b60006107bc838361075b565b60808301905092915050565b6000602082019050919050565b60006107e08261072f565b6107ea818561073a565b93506107f58361074b565b8060005b8381101561082657815161080d88826107b0565b9750610818836107c8565b9250506001810190506107f9565b5085935050505092915050565b6000602082019050818103600083015261084d81846107d5565b905092915050565b600082825260208201905092915050565b7f6e6f20696e746572616374696f6e207265636f7264656420666f72207468697360008201527f2061646472657373000000000000000000000000000000000000000000000000602082015250565b60006108c2602883610855565b91506108cd82610866565b604082019050919050565b600060208201905081810360008301526108f1816108b5565b9050919050565b7f4e487b7100000000000000000000000000000000000000000000000000000000600052601160045260246000fd5b60006109328261068b565b91507fffffffffffffffffffffffffffffffffffffffffffffffffffffffffffffffff8203610964576109636108f8565b5b600182019050919050565b7f4e487b7100000000000000000000000000000000000000000000000000000000600052604160045260246000fd5b7f4e487b7100000000000000000000000000000000000000000000000000000000600052603260045260246000fdfea2646970667358221220ea92b0bd27bdf1ec3f3dabec00b6a487ca16a944e13e6c442c25696f1c1e123a64736f6c634300080d0033",
  "immutableReferences": {},
  "source": "// SPDX-License-Identifier: MIT\npragma solidity >=0.4.22 <0.9.0;\n\ncontract MyContract {\n    address private owner;\n\n    uint256 uniqueUsers;\n\n    struct User {\n        address address_;\n        uint256 id;\n        uint256 count;\n        bool accessedFlag;\n    }\n\n    mapping(address => User) users;\n    mapping(uint256 => User) usersById;\n\n    constructor() {\n        owner = msg.sender;\n        uniqueUsers = 0;\n    }\n\n    modifier hasAccessedPrior() {\n        require(\n            users[msg.sender].accessedFlag,\n            \"no interaction recorded for this address\"\n        );\n        _;\n    }\n\n    function hitContract() public {\n        if (!users[msg.sender].accessedFlag) {\n            User memory user = User(msg.sender, uniqueUsers, 1, true);\n            users[msg.sender] = user;\n            usersById[uniqueUsers] = user;\n            uniqueUsers++;\n        } else {\n            users[msg.sender].count++;\n            usersById[users[msg.sender].id].count++;\n        }\n    }\n\n    function getUserData() public view hasAccessedPrior returns (User memory) {\n        return users[msg.sender];\n    }\n\n    function getAllInteractions() public view returns (User[] memory) {\n        User[] memory users_ = new User[](uniqueUsers);\n        for (uint256 i = 0; i < uniqueUsers; i++) {\n            users_[i] = usersById[i];\n        }\n        return users_;\n    }\n}\n",
  "sourcePath": "/home/eric/crypto-projects/truffle-mycontract/contracts/MyContract.sol",
  "compiler": {
    "name": "solc",
    "version": "0.8.13+commit.abaa5c0e.Emscripten.clang"
  },
  "schemaVersion": "3.4.7",
  "updatedAt": "2022-04-26T04:30:43.554Z",
  "devdoc": {
    "kind": "dev",
    "methods": {},
    "version": 1
  },
  "userdoc": {
    "kind": "user",
    "methods": {},
    "version": 1
  }
}